:020000040000FA
:100000000C94C6000C94EE000C94EE000C94EE00E0
:100010000C94EE000C94EE000C94EE000C94EE00A8
:100020000C94EE000C94EE000C94EE000C94EE0098
:100030000C94EE000C94EE000C94EE000C94EE0088
:100040000C94B2070C94EE000C9422080C94FC075C
:100050000C94EE000C94EE000C94EE000C94EE0068
:100060000C94EE000C94EE002D3E20004D415020EB
:1000700031004D41502033004D415020320061721B
:100080006D65643B20636F756E74646F776E00738B
:10009000656C662D74657374204F4B3B2073686FDD
:1000A000772068616E6420746F2066726F6E7420B2
:1000B00073656E736F7220746F2061726D00736967
:1000C00064652073756D2000526F626F742D4661F8
:1000D000626C6520636F6D7065746974696F6E2002
:1000E0006669726D77617265002166726F6E742D3C
:1000F000626C6F636B2C204F2070656E64696E6755
:10010000002166726F6E742D626C6F636B2C2073AE
:10011000637269707420646F6E65003D3D3D2052CE
:10012000554E20434F4D504C455445203D3D3D00DC
:1001300000000000240027002A0000000000250025
:1001400028002B00000000002300260029000404E2
:10015000040404040404020202020202030303036F
:10016000030301020408102040800102040810204B
:100170000102040810200000000800020100000332
:1001800004070000000000000000001411241FBE3E
:10019000CFEFD8E0DEBFCDBF11E0A0E0B1E0ECE4EE
:1001A000FDE202C005900D92A43DB107D9F723E00E
:1001B000A4EDB1E001C01D92AE32B207E1F710E04C
:1001C000C6ECD0E004C02197FE010E949E16C53CFB
:1001D000D107C9F70E9404090C94A4160C940000DE
:1001E000833081F028F4813099F08230A9F00895AD
:1001F0008730A9F08830C9F08430B1F48091800054
:100200008F7D03C0809180008F7780938000089558
:1002100084B58F7784BD089584B58F7DFBCF8091A1
:10022000B0008F778093B00008958091B0008F7DEB
:10023000F9CFCF93DF93282F30E0F901EA58FE4F32
:100240008491F901EE59FE4FD491F901E25BFE4F22
:10025000C491CC23A1F081110E94F000EC2FF0E0BA
:10026000EE0FFF1FEC5BFE4FA591B491EC91ED23D7
:1002700081E090E009F480E0DF91CF91089580E083
:1002800090E0FACF1F93CF93DF93282F30E0F9014E
:10029000EA58FE4F8491F901EE59FE4FD491F901CD
:1002A000E25BFE4FC491CC23A9F0162F81110E946E
:1002B000F000EC2FF0E0EE0FFF1FE65CFE4FA59183
:1002C000B4918FB7F894EC91111108C0D095DE234A
:1002D000DC938FBFDF91CF911F910895DE2BF8CF74
:1002E000CF93DF9390E0FC01EE59FE4F2491825BA7
:1002F0009E4FFC0184918823C9F090E0880F991FDC
:10030000FC01E05DFE4FA591B491FC01E65CFE4F5F
:10031000C591D49161110DC09FB7F8948C9120952F
:1003200082238C938881282328839FBFDF91CF91DC
:100330000895623051F49FB7F8943C91822F8095D4
:1003400083238C93E8812E2BEFCF8FB7F894EC9119
:100350002E2B2C938FBFEACF1F93CF93DF93182FB1
:10036000EB0161E00E947001209739F460E0812F79
:10037000DF91CF911F910C944201CF3FD10511F431
:1003800061E0F5CFE12FF0E0EA58FE4FE491E33071
:1003900031F140F4E130B1F0E230E1F0C038D105A4
:1003A0007CF7E4CFE73029F1E83059F1E430B1F7D8
:1003B00080918000806280938000D0938B00C093F6
:1003C0008A0004C084B5806884BDC7BDDF91CF9129
:1003D0001F91089584B5806284BDC8BDF7CF809118
:1003E0008000806880938000D0938900C09388004B
:1003F000EDCF8091B00080688093B000C093B300CF
:10040000E5CF8091B00080628093B000C093B400CB
:10041000DDCF3FB7F89480918D0290918E02A0912C
:100420008F02B091900226B5A89B05C02F3F19F00E
:100430000196A11DB11D3FBFBA2FA92F982F882764
:10044000BC01CD01620F711D811D911D42E0660F3F
:10045000771F881F991F4A95D1F708958F929F9211
:10046000AF92BF92CF92DF92EF92FF924B015C016D
:100470000E9409026B017C010E9409026C197D092E
:100480008E099F09683E734081059105A8F321E01C
:10049000821A9108A108B10888EEC80E83E0D81E20
:1004A000E11CF11C81149104A104B10429F7FF900F
:1004B000EF90DF90CF90BF90AF909F908F90089576
:1004C0002FB7F8946091890270918A0280918B0213
:1004D00090918C022FBF0895AF92BF92CF92DF927E
:1004E000EF92FF920F931F93CF93DF936C017B01E9
:1004F0008B01040F151FEB015E01AE18BF08C0177A
:10050000D10759F06991D601ED91FC910190F081EC
:10051000E02DC6010995892B79F7C501DF91CF91AF
:100520001F910F91FF90EF90DF90CF90BF90AF9011
:100530000895FC01538D448D252F30E0842F90E0E9
:10054000821B930B541710F0CF96089501970895CE
:10055000FC01918D828D981761F0A28DAE0FBF2F97
:10056000B11D5D968C91928D9F5F9F73928F90E0ED
:1005700008958FEF9FEF0895FC01918D828D98175C
:1005800031F0828DE80FF11D858D90E008958FEF99
:100590009FEF0895FC01918D228D892F90E0805C62
:1005A0009F4F821B91098F739927089581E992E0EB
:1005B0000E94CA0221E0892B09F420E0822F0895CD
:1005C00080E090E0892B29F00E94D60281110C94E2
:1005D00000000895FC01A48DA80FB92FB11DA35AE6
:1005E000BF4F2C91848D90E001968F739927848F53
:1005F000A689B7892C93A089B1898C918370806476
:100600008C93938D848D981306C00288F389E02D16
:1006100080818F7D80830895EF92FF920F931F93C7
:10062000CF93DF93EC0181E0888F9B8D8C8D9813A5
:100630001AC0E889F989808185FF15C09FB7F894B1
:10064000EE89FF896083E889F989808183708064FD
:1006500080839FBF81E090E0DF91CF911F910F9148
:10066000FF90EF900895F62E0B8D10E00F5F1F4F57
:100670000F731127E02E8C8D8E110CC00FB607FC66
:10068000FACFE889F989808185FFF5CFCE010E94F4
:10069000EA02F1CFEB8DEC0FFD2FF11DE35AFF4F76
:1006A000F0829FB7F8940B8FEA89FB898081806282
:1006B000CFCF0F931F93CF93DF938C01D0E0C0E097
:1006C000F801EC0FFD1F6491662341F081E992E08F
:1006D0000E940C03892B11F02196F2CFCE01DF91FD
:1006E000CF911F910F910895CF93DF93EC01888DE7
:1006F0008823B9F0AA89BB89E889F9898C9185FD9D
:1007000003C0808186FD0DC00FB607FCF7CF8C912A
:1007100085FFF2CF808185FFEDCFCE010E94EA02F6
:10072000E9CFDF91CF910895E2EFF1E012821182DB
:10073000EFEEF1E01282118208950F931F930E9451
:1007400060020091F8011091F9012091FA013091B5
:10075000FB01601B710B820B930B1F910F9108958E
:10076000FF920F931F93CF93DF93EB01F42E4093EF
:100770001F0281111CC088E016E00BE0F11002C0DE
:100780002097C9F460E00E94420160E0802F0E943F
:10079000420170E060E0FF2011F06FEF70E0812F08
:1007A000DF91CF911F910F91FF900C94AC0184E0E9
:1007B00015E007E0E3CF61E01C161D060CF060E0D9
:1007C0000E94420161E01C161D060CF460E0802FBF
:1007D0000E944201D7FF03C0D195C195D109CF3FF7
:1007E000D10519F014F0CFEFD0E0BE01EC97BCF6C4
:1007F0006CE370E0D4CFCF93C42F4091310250917D
:100800003202841B950B863F2FEF920714F486EF7C
:100810009FEF20912F0230913002621B730B663FD5
:10082000EFEF7E0714F466EF7FEF8B30910514F045
:100830008AE090E0840F951F9093320280933102FA
:100840006B30710514F06AE070E0620F731F7093F3
:10085000300260932F02CC2341F0109232021092AA
:1008600031021092300210922F0260913102709189
:1008700032024C2F81E00E94B00360912F027091F0
:1008800030024C2F80E0CF910C94B0030F931F9354
:10089000CF938B01C42F442311F090E080E090931C
:1008A000320280933102CC2311F010E000E010936B
:1008B000300200932F024C2FBC0181E00E94B00354
:1008C0004C2FB80180E0CF911F910F910C94B00391
:1008D000282F30E0F901E559FD4F808181111BC0BF
:1008E000F901EB5CFD4F80818823B1F0220F331FAB
:1008F000220F331FF901E85CFD4F20E030E04CE5AA
:1009000053E460817181828193810E949A14881FCF
:100910008827881F089580E0089590E0FC01E5593C
:10092000FD4F2081211112C0FC01EB5CFD4F2081A5
:10093000222361F0880F991F880F991FFC01E85C42
:10094000FD4F6081718182819381089560E070E044
:100950008AEF94E408952F923F924F925F926F92A4
:100960007F928F929F92AF92BF92CF92DF92EF923F
:10097000FF920F931F93CF93DF93CDB7DEB72B97E3
:100980000FB6F894DEBF0FBECDBF1C0149835A835A
:100990006B837C832D831E2DDF82CE82B986A88651
:1009A00081E00E948D042B013C0182E00E948D04B5
:1009B0004B015C0181E00E9468048B87882339F138
:1009C00020E030E84CE153E4C301B2010E949A14E4
:1009D00087FF56C0C0907502D0907602E0907702F3
:1009E000F090780220E030E0A901C701B6010E9432
:1009F0009A1487FD0CC020E030E848E553E4C701B5
:100A0000B6010E949A14881F8827881F8B8782E06E
:100A10000E9468048A87882339F120E030E045E2AB
:100A200053E4C501B4010E949A1487FF2BC0C09003
:100A30007902D0907A02E0907B02F0907C0220E074
:100A400030E0A901C701B6010E949A1487FD0CC0CD
:100A500020E030E041E653E4C701B6010E949A1459
:100A6000881F8827881F8A87112371F08B85882328
:100A700019F09A85911119C0C12CD12C760135C07D
:100A80001B86C5CF1A86F0CFEB85EE2309F424C16F
:100A900020E030E04DEA52E4C301B2010E942D147F
:100AA0006B017C01FA85FF2301F120E030E04DEA83
:100AB00052E4C301B2010E942D146B017C0120E0BD
:100AC00030E04EEB52E4C501B4010E942D149B01AD
:100AD000AC01C701B6010E942D1420E030E040E0D7
:100AE0005FE30E94FE156B017C018D818150823095
:100AF00008F05AC0E0911B02E53008F0FAC081E02E
:100B00008E0F80931B0294E0E99FF0011124EC52B8
:100B1000FE4FC082D182E282F382E0911B02ED831C
:100B2000E23008F441C02091D4013091D5014091C8
:100B3000D6015091D701C701B6010E942D144B0177
:100B40005C018D818150990BBC01072E000C880B34
:100B5000990B0E9449152AE037ED43E25DE30E94BC
:100B6000FE159B01AC01C501B4010E949F144B010D
:100B70005C0120E030E046E154E40E94F9151816CB
:100B80000CF4CFC020E030E046E154ECC501B401E4
:100B90000E949A1487FDCCC080921702909218028E
:100BA000A0921902B0921A0220E030E040E252E432
:100BB000C701B6010E94F91518160CF4C0C020E058
:100BC00030E040E252ECC701B6010E949A1487FD62
:100BD000BDC020E030E040E251ECC701B6010E9408
:100BE000F915181654F420E030E040E251E4C70152
:100BF000B6010E949A1487FDB0C0809017029090B1
:100C00001802A0901902B0901A0226E636E646EEC7
:100C10005EE3C501B40101111CC02EEA37E441E6D0
:100C20005EE3C701B6010E94FE156B017C012DEC4D
:100C30003CEC4CE45EE3C501B4010E94FE159B014F
:100C4000AC01C701B6010E942E1429813A814B8163
:100C50005C810E94FE156B017C0120E030E040EADF
:100C600052E40E94F91518160CF47BC020E030E025
:100C700040EA52ECC701B6010E949A1487FD78C081
:100C8000C701B6010E9411159101261B370BEE8199
:100C9000FF8131832083620D731D6F5F7F4FE88575
:100CA000F985718360832B960FB6F894DEBF0FBE73
:100CB000CDBFDF91CF911F910F91FF90EF90DF900B
:100CC000CF90BF90AF909F908F907F906F905F90EC
:100CD0004F903F902F9008958A85882309F4CCCEB9
:100CE000A501940160E070E08EEB92E40E942D1467
:100CF000FACEE4EDF1E084EE91E044815581668125
:100D0000778141935193619371938E179F07A9F750
:100D1000C092E401D092E501E092E601F092E70191
:100D2000FCCE812C912C56E1A52E54E4B52E34CF67
:100D3000812C912C46E1A42E44ECB42E2DCFC12C55
:100D4000D12C30E2E32E32E4F32E57CFC12CD12C3C
:100D500020E2E22E22ECF22E50CFC12CD12C7601D3
:100D60004CCFC12CD12C90EAE92E92E4F92E88CFF9
:100D7000C12CD12C80EAE82E82ECF82E81CFFC0128
:100D800001900020E9F73197AF01481B590BBC01D6
:100D900081E992E00C946C02CF93DF930E94590397
:100DA000EC0181E691E00E94BF068C0F9D1FDF9150
:100DB000CF910895CF93DF93EC01909387028093B6
:100DC00086020E9460026093F8017093F90180939B
:100DD000FA019093FB01C530D10519F0CB30D10554
:100DE00001F541E070E060E090E080E00E944604A0
:100DF000C530D105B1F41092F60188E690E00E946A
:100E00005903CC0FDD1FC75FDE4F888199810097A2
:100E100011F00E94BF0681E691E0DF91CF910C9422
:100E2000BF06C430D10529F41092ED011092EC01F7
:100E3000E4CFC630D10559F41092F7011092FF01AA
:100E40001092FD011092FC011092EB01D6CFCB3035
:100E5000D105D1F3D2CFCF92DF92EF92FF920F93D1
:100E60001F93CF93DF9390E0FC01E65AFE4FF08092
:100E7000895A9E4FFC01C0818C2F0E941901019755
:100E8000B9F461E08C2F0E94700160E08C2F0E9409
:100E900042018BEC97E00197F1F760E08C2F0E9404
:100EA0007001C12CD12C80E8E82E8FEBF82E4FC0BA
:100EB00060E08F2D0E94420187E090E00197F1F7FA
:100EC00061E08F2D0E94420183E290E00197F1F7EB
:100ED00060E08F2D0E944201D0E0FE01EE59FE4FEE
:100EE0006491FE01E25BFE4FE491F0E0EE0FFF1F24
:100EF000EC5BFE4F8591949108EC12E320E030E02A
:100F0000462F0E945408611571058105910509F469
:100F1000C8CF6F5F7F4F8F4F9F4F9F7061157105D7
:100F20008105910509F4BDCF0E94471522EB3DE9EB
:100F30004FE25EE30E94FE156B017C0120E030E091
:100F40004AEF54E40E94F91518160CF4AACFC70111
:100F5000B601DF91CF911F910F91FF90EF90DF903D
:100F6000CF9008951F920F920FB60F9211242F93D6
:100F70003F938F939F93AF93BF93809189029091FA
:100F80008A02A0918B02B0918C023091880223E0FA
:100F9000230F2D3758F50196A11DB11D209388020E
:100FA0008093890290938A02A0938B02B0938C0263
:100FB00080918D0290918E02A0918F02B09190024B
:100FC0000196A11DB11D80938D0290938E02A09376
:100FD0008F02B0939002BF91AF919F918F913F91FB
:100FE0002F910F900FBE0F901F90189526E8230F9A
:100FF0000296A11DB11DD2CF1F920F920FB60F9274
:1010000011242F933F934F935F936F937F938F930D
:101010009F93AF93BF93EF93FF9381E992E00E9478
:10102000EA02FF91EF91BF91AF919F918F917F91D4
:101030006F915F914F913F912F910F900FBE0F9045
:101040001F9018951F920F920FB60F9211242F9395
:101050008F939F93EF93FF93E091A102F091A202EF
:101060008081E091A702F091A80282FD1BC09081CF
:101070008091AA028F5F8F732091AB02821741F09B
:10108000E091AA02F0E0EF56FD4F958F8093AA02FF
:10109000FF91EF919F918F912F910F900FBE0F9025
:1010A0001F9018958081F4CFCF92DF92EF92FF923C
:1010B0000F931F93E82FF92F05C001501109210943
:1010C000310961F1908196239417B9F305C001505D
:1010D00011092109310911F1908196239413F7CF59
:1010E000C12CD12CE12CF12C0AC08FEFC81AD80AE0
:1010F000E80AF80A0C151D052E053F0579F08081D8
:101100008623841791F36C2D7D2D8E2D9F2D1F919D
:101110000F91FF90EF90DF90CF90089560E070E026
:1011200080E090E01F910F91FF90EF90DF90CF90C3
:101130000895D82F41E070E060E090E080E00E94E8
:10114000FB03C0E061E08DE00E94420164EB70E0CF
:1011500080E090E00E942E0260E08DE00E9442015B
:1011600064EB70E080E090E00E942E02CF5FDC1321
:10117000E9CF64E873E080E090E00E942E02E1CFC6
:101180008F929F92AF92BF920F931F93CF93DF9353
:10119000CDB7DEB7A1970FB6F894DEBF0FBECDBFB7
:1011A00019A2423008F44AE08E010F5D1F4F842ED1
:1011B000912CB12CA12CA50194010E947C16E62F44
:1011C000B901CA01EA30F4F4E05DD801EE938D0173
:1011D000232B242B252B79F790E080E0109719F032
:1011E000CD010E94BF06A1960FB6F894DEBF0FBED8
:1011F000CDBFDF91CF911F910F91BF90AF909F9086
:101200008F900895E95CE1CFCF93DF93CDB7DEB740
:1012100069970FB6F894DEBF0FBECDBF789484B542
:10122000826084BD84B5816084BD85B5826085BDE2
:1012300085B5816085BD80916E00816080936E0070
:101240001092810080918100826080938100809162
:101250008100816080938100809180008160809313
:1012600080008091B10084608093B1008091B000D3
:1012700081608093B00080917A00846080937A00CE
:1012800080917A00826080937A0080917A008160F8
:1012900080937A0080917A00806880937A0010921F
:1012A000C10061E084E00E94700161E087E00E947B
:1012B000700161E088E00E94700161E08BE00E94B3
:1012C000700161E085E00E94700161E086E00E94AB
:1012D000700161E08DE00E9470010AE511E0F7E520
:1012E0008F2EF1E09F2EA1E7AA2EA2E0BA2E25E3D1
:1012F00032E03C8B2B8B88E692E0988B8F87BEE6A2
:101300006B2EB2E07B2E8BE6482E82E0582EC12C4D
:10131000D12C90E8E92E9FEBF92ED8013D908D015C
:1013200061E0832D0E94700160E0832D0E944201E4
:1013300060E0F40181914F010E947001D501CD92CE
:10134000DD92ED92FD925D01EB89FC891192FC8B9F
:10135000EB8BAF85B8891D92B88BAF87F3011192E3
:101360003F01D2011D922D01B1E00D351B07A9F6F9
:1013700041E070E060E090E080E00E94FB03E091DB
:10138000A102F091A20282E08083E0919D02F0919F
:101390009E021082E0919F02F091A00280E1808382
:1013A0001092A902E091A502F091A60286E0808346
:1013B000E091A302F091A402808180618083E0919A
:1013C000A302F091A402808188608083E091A3024F
:1013D000F091A402808180688083E091A302F09163
:1013E000A40280818F7D808388EC90E00E94CC06EF
:1013F00062E082E00E94700162E083E00E9470017E
:1014000065E070E080E090E00E942E0282E00E94A1
:101410001901892B79F588E790E00E94CC0626E037
:10142000EBE4F1E0A0E0B2E080E0419151914D9316
:101430005D938F5F2813F9CF209314021092150249
:1014400010E008E2812F0E942B0720E030E0A90184
:101450000E94F91587FD02C00C94671362E370E0E7
:1014600080E090E00E942E02015061F782E0810F3F
:101470000C94B51383E00E941901892B41F482E793
:1014800090E00E94CC0628E0EBE3F1E0CBCF8CE6C5
:1014900090E00E94CC0622E0E7E3F1E0C3CF602FAA
:1014A00070E090E080E00E9449159B01AC01C5010D
:1014B000B4010E949F144B015C01612F70E090E029
:1014C00080E00E9449159B01AC01C701B6010E9452
:1014D0009F149B01AC01C501B4010E942E146B0145
:1014E0007C014B015C0120E030E848E053E40E94BD
:1014F0009A1487FD0BC020E030E842E653E4C701B0
:10150000B6010E94F91518160CF0ABC08EEB90E0F6
:101510000E945903A7019601C701B6010E946B16EC
:10152000882359F084E691E00E94BF0681E691E0AD
:101530000E94BF0686E00C94B51326013701E8949B
:1015400077F82FEF3FEF4FE75FE7C301B2010E944B
:101550006B1681110DC02FEF3FEF4FE75FE7C3011F
:10156000B2010E949A1418161CF488E691E0DCCFB0
:101570002FEF3FEF4FE75FE4C701B6010E94F91577
:1015800018161CF48CE691E0CFCF2FEF3FEF4FE71A
:101590005FECC701B6010E949A1487FDF3CF20E0EB
:1015A00030E0A901C701B6010E949A1487FF0BC061
:1015B0006DE281E992E00E940C0346015701B7FAFF
:1015C000B094B7F8B0942AE037ED43EA5BE3C50185
:1015D000B4010E942E144B015C010E9418156B018E
:1015E0007C010E9447159B01AC01C501B4010E941A
:1015F0002D144B015C014AE0C701B6010E94C008EE
:101600006EE281E992E00E940C0320E030E040E2CB
:1016100051E4C501B4010E94FE154B015C010E941A
:1016200018156B01F12CE12C4AE0C701B6010E94AC
:10163000C008C701B6010E9447159B01AC01C50156
:10164000B4010E942D1420E030E040E251E40E94F9
:10165000FE150E94181590E080E04AE00E94C00844
:1016600065CF61E08DE00E9442018FE890E00E942A
:10167000CC06C12CD12C760180E00E942B074B01B7
:101680005C0120E030E0A9010E94F91587FD14C03B
:1016900020E030E048EC52E4C501B4010E949A1405
:1016A00087FF0AC0C114D104E104F10469F40E9467
:1016B00060026B017C0108C0C114D104E104F10493
:1016C00051F4C12CD12C76016CE370E080E090E005
:1016D0000E942E02D1CF0E9460026C197D098E09F2
:1016E0009F09653F71408105910558F38EE790E0B1
:1016F0000E94CC061AE08DE00E94190161E0892B5E
:1017000009F060E08DE00E94420168EC70E080E04A
:1017100090E00E942E02115071F760E08DE00E946F
:1017200042010E9460026093820270938302809360
:1017300084029093850283E090E00E94DA06809113
:101740008602909187020D9741F441E070E060E0DD
:1017500090E080E00E94FB0320C00E9460020091A4
:101760008202109183022091840230918502601BD5
:10177000710B820B930B6138794A83409105C0F05D
:1017800041E070E060E090E080E00E94FB038DE0CB
:1017900090E0909387028093860280E090E0892B0E
:1017A00071F20E94D602882351F20E940000C7CF36
:1017B0000E946002C0907E02D0907F02E090800282
:1017C000F09081026C197D098E099F0964317105C1
:1017D0008105910510F324E1C20ED11CE11CF11C1E
:1017E000C0927E02D0927F02E0928002F09281024B
:1017F0000E9460026C197D098E099F09653671058A
:101800008105910550F00E94600260937E02709302
:101810007F02809380029093810280917D02E82F65
:10182000E370F0E0E35AFE4F10818F5F80937D02FA
:10183000812F0E942B076B017C01A12EB12CC501C9
:10184000880F991F880F991F9C8B8B8BFC01EF5879
:10185000FD4FC082D182E282F38220E030E0A90114
:10186000C701B6010E949A14F501E259FD4F87FFA6
:101870002FC180818F5F8083823028F081E0F50165
:10188000E559FD4F808380E00E948D046B017C014F
:1018900033243A94310EE1E0E31508F4CBC1EB892F
:1018A000FC89EF58FD4F408051806280738020E0BA
:1018B00030E0A901C301B2010E94F91595012E5033
:1018C0003E4F490187FDAAC120E030E04CE553E4DA
:1018D000C301B2010E949A1487FFA0C181E0D40124
:1018E0008C93F501E151FE4F1082A0908602B090DA
:1018F0008702F3E0AF16B1040CF4D3C026E0A216C1
:10190000B10409F4CEC0C5010B97039708F4C9C010
:1019100080913502882309F4F7C180916B0281110F
:10192000F3C120E030E040E052E4C701B6010E947C
:101930009A1487FFE9C18BE090E00E94DA0680915B
:101940003502882379F080916B028111FFC120E07C
:1019500030E048EC53E4C701B6010E949A14881F96
:101960008827881F20918602309187022330310515
:1019700009F0FFC1882309F4FCC180E00E948D04B6
:101980002B013C0149825A826B827C8281E00E9459
:101990008D046F87788B898B9A8B6D837E838F8381
:1019A000988782E00E948D046D8B7E8B8F8B988F41
:1019B00069877A878B879C87809131029091320268
:1019C000CD973CF001E080912F0290913002CD97AD
:1019D0000CF400E080912E02882389F1A1E0B0E0B0
:1019E000AC0FBD1F8B899C89A80FB91FFC01EE5D50
:1019F000FD4F20813181428153816D917D918D9187
:101A00009C910E942D144B015C0120E030E0A90163
:101A10000E949A1487FF04C0B7FAB094B7F8B09444
:101A200020E030E040EC50E4C501B4010E94F9151B
:101A300018160CF08DC110922102109220024092D3
:101A400022025092230260922402709225028F8516
:101A50009889A989BA898093260290932702A09336
:101A60002802B09329028D899E89AF89B88D809311
:101A70002A0290932B02A0932C02B0932D0281E0B6
:101A800080932E0280912002909121028D34944007
:101A900044F010922102109220028BE090E00E940C
:101AA000DA06E0918602F09187023397EA30F10579
:101AB00008F073CEE25AF24F0C949E16C00E860FB9
:101AC00028106D111F123D1256126512B6123D13E9
:101AD0001082F501E559FD4F1082D501A859BD4F7F
:101AE0008C9181117EC08CE08A9DF0018B9DF00D60
:101AF0001124EC5BFD4FC086D186E286F386C4825A
:101B0000D582E682F782C082D182E282F38283E0CC
:101B10008C938CE08A9DF0018B9DF00D1124EC5B81
:101B2000FD4F708081809280C380D480E580F680F4
:101B30000781208491859F87A285AD8BB385B98F5E
:101B40002D2D3E2D4F2D502F672D782D892D9C2D1D
:101B50000E949A14372C24016C2C87FD03C03D2C65
:101B60002701602E2D2D3E2D4F2D502F672D782DC6
:101B7000892D9C2D0E94F91518161CF4D72C740180
:101B80000C2D2D2D3E2D4F2D502F622D7F858D89B3
:101B9000998D0E94F915181624F0D22CEF84FD8837
:101BA000098D2D2D3E2D4F2D502F632D742D852DFC
:101BB000962D0E94F91518161CF4D32C7201062DCF
:101BC0008D2D9E2DAF2DB02FEB89FC89E85CFD4F4C
:101BD00080839183A283B38381E0F501EB5CFD4FA9
:101BE00051CE8CE08A9DF0018B9DF00D1124EC5BB1
:101BF000FD4F84819581A681B78180839183A283E3
:101C0000B38380859185A285B38584839583A683DC
:101C1000B783C086D186E286F3867BCFF4018081CC
:101C2000882309F462CEF501E151FE4F80818F5F78
:101C300080835BCE111159CE00916B0201110CC053
:101C400080913502882341F0C0920501D0920601AF
:101C5000E0920701F092080180900101909002014A
:101C6000A0900301B090040120E030E0A901C5017B
:101C7000B4010E94F91587FD3EC0A5019401C7017A
:101C8000B6010E942D144B015C0120E030E0A90157
:101C90000E949A1487FF04C0B7FAB094B7F8B094C2
:101CA00020E030E046E153E4C501B4010E94F9159B
:101CB000181654F48091340288301CF48F5F80939E
:101CC0003402011118C009C001110AC08091340208
:101CD00018161CF4815080933402109233020BC00A
:101CE000809133028F5F80933302883020F080919F
:101CF000340218167CF3C0920101D0920201E092E6
:101D00000301F0920401F1CD8091340286300CF48D
:101D100016CE35E0A316B10409F411CE5AE0A5168B
:101D2000B10409F40CCE8091310290913202181660
:101D300019060CF004CE80912F02909130021816F3
:101D400019060CF0FCCD10923402F5CD80E00ACEDD
:101D5000002309F474CE80911F02811170CE80910E
:101D600020029091210244969093210280932002B8
:101D700066CE109221021092200210922E0291CE75
:101D8000111117C0809135028823F1F080916B0208
:101D900081111AC020E030E048E453E4C701B601E5
:101DA0000E949A1487FF10C080911C028F5F80935D
:101DB0001C0280911C02833050F01092FE0184E0DE
:101DC00090E00E94DA06E9CC10921C02F2CF8091DA
:101DD000150290911402891708F0C9C4C82ED12C9D
:101DE000CC0CDD1CF601E050FE4F6F019081983560
:101DF00009F0D0C481E00E946804811139C082E0FA
:101E00000E946804811134C08091EA018F5F86309E
:101E100090F58093EA0181E00E946804882309F428
:101E200072C082E00E946804882309F46CC08EE6C8
:101E300090E0C114D10431F0EE24E394F601208146
:101E4000283509F0E12C9E012F5F3F4F5901DE013B
:101E50001D966D0100E0212F40E050E060E87FE337
:101E60000E94AB0469817A8140E08D859E8572CCA9
:101E70001092EA01D0CF1092EA018AE090E0A1CF5F
:101E80008091E801BB2061F0AA2051F08F5F809320
:101E9000E8018A3008F47BC481E08093E90177C4CB
:101EA000882309F474C481508093E80170C4809140
:101EB0006B02811123C080913502882361F001E01B
:101EC00020E030E048EC53E4C701B6010E94F91568
:101ED00018160CF000E0B11013C0A11011C00023BF
:101EE00079F080911E028F5F80931E0280911E0206
:101EF000833208F44CC48CE090E063CF082FEBCF22
:101F000010921E02F3CF83E790E093CF0E949D03CF
:101F1000693B7B40810591051CF085E090E051CF45
:101F200080916B028823A9F1C0900501D090060131
:101F3000E0900701F090080120E030E0A901C7011E
:101F4000B6010E94F91587FD0AC020E030E040EF9D
:101F500052E4C701B6010E949A1487FDDECF80913A
:101F6000EC019091ED0144969093ED018093EC018A
:101F70008D3B92400CF45DC010921C028091EB01ED
:101F80008F5F8093EB01833008F4A0C08BE090E07A
:101F900018CF1092ED011092EC0180907502909094
:101FA0007602A0907702B090780220E030E0A9019C
:101FB000C501B4010E94F91587FD0AC020E030E098
:101FC0004CE552E4C501B4010E949A1487FDA5CFE7
:101FD0008090790290907A02A0907B02B0907C026F
:101FE00020E030E0A901C501B4010E94F91587FD88
:101FF0000AC020E030E04CE552E4C501B4010E9483
:102000009A1487FD8ACF20E030E04FEA53E4C701FD
:10201000B6010E94F91518160CF4AECF20E030E09E
:1020200040EB52E4C701B6010E949A1418160CF056
:1020300074CF9E012F5F3F4F5901CE010D966C0169
:10204000E12C00E0212F40E050E060E07FE32BC274
:102050000E949D034B015C018091F601811165C0D6
:1020600041E070E060E090E080E00E94FB039AEFC6
:1020700089169104A104B1040CF48FCB8091FE0168
:10208000882381F083E08093F6011092F5010E948D
:1020900060026093F8017093F9018093FA019093C4
:1020A000FB017BCB80916B02811138C0809135029E
:1020B000882379F020E030E048E253E4C701B6011C
:1020C0000E94F91518162CF410921C0283E090E07F
:1020D00078CE20E030E040E752E4C701B6010E942C
:1020E0009A1487FD1BC0C0900501D0900601E090B6
:1020F0000701F090080120E030E0A901C701B60116
:102100000E94F91587FD0EC020E030E04CE852E453
:10211000C701B6010E949A1487FF04C081E0809332
:10212000F601B5CF82E08093F6018091F60181300F
:10213000D1F4A4E58A16A1E09A06A104B10444F4FE
:1021400040E061EA7FEF81EA9FEF0E94460425CBE1
:10215000BAEE8B16B1E09B06A104B1040CF4F5CAEB
:1021600082E08093F601F090FE018091F6018330C9
:1021700009F082C0ECE401E0FE1202E010E0F80198
:10218000EE0FFF1FEE0FFF1FEF58FD4F40805180F5
:102190006280738020E030E0A901C301B2010E9497
:1021A000F91587FD0DC020E030E04CE553E4C30194
:1021B000B2010E949A1487FF03C081E08093F50169
:1021C000F0EE8F16F1E09F06A104B104A4F528E714
:1021D000821A9108A108B10830EF83169104A10476
:1021E000B10430F121E030E052E581E090E0F516F5
:1021F00011F08FEF9FEF68E86203A001639F500D1D
:102200001124489FB001499F700D589F700D1124F3
:1022100048E7429FF001439FF00D112440E0DC01AC
:10222000EA9FC001EB9F900DFA9F900D11248DCF76
:102230002FEF3FEFD9CFB6E78B16B2E09B06A10494
:10224000B1040CF482CA8091F501882391F0809149
:102250001502882319F0815080931502F801EE5081
:10226000FE4F1082F801E151FE4F10821092FE01E4
:102270002BCF82E08093F601F110BFC2809115024E
:1022800090911402891708F0A0C2E82FF0E0EE0F39
:10229000FF1FE050FE4F9081983509F0A5C21092C3
:1022A0001C02EBCD1092EE0181E00E948D046B01C7
:1022B0007C0182E00E948D049B01AC01C701B60144
:1022C0000E94F91518163CF48CE495C289EE90E052
:1022D0000E94CC06E9CF82E58EC20E949D03AB012D
:1022E000BC011091FF0138EAC32E32E0D32EE12C5D
:1022F000F12C112331F028E9C22EDD24D394E12CF6
:10230000F12CC416D506E606F706BCF08091FE0156
:102310002FEF3FEF8C3411F021E030E048E842032A
:10232000B001439F700D112440E088E7E82FE29F41
:10233000C001E39F900D112408CF46015701F6E933
:102340008F0E911CA11CB11C84169506A606B7061B
:102350000CF0FBC92091FC013091FD01C901032E55
:10236000000CAA0BBB0B880D991DAA1DBB1D841761
:102370009507A607B7070CF0E3CE232B29F01092A0
:10238000FD011092FC0183CE80916B02811144C04B
:1023900080913502882309F43FC080E00E948D04BB
:1023A00020E030E042E853E40E94F9151816A4F149
:1023B0008091F7018230E0F48F5F8093F7010E94F3
:1023C000600206E410E020E030E00C191D092E093F
:1023D0003F09DC01CB01800F911FA21FB31F809327
:1023E000F8019093F901A093FA01B093FB01D5C9CC
:1023F000123090F41F5F1093FF011092F70182ECEE
:1024000091E09093FD018093FC010E9460020AE636
:102410001FEF2FEF3FEFD9CF10921B021092170240
:10242000109218021092190210921A0210921C02B5
:102430001092FE010E94940387E090E0C2CC0E94BB
:102440009D036C387105810591050CF47EC96031DE
:102450007440810591051CF088E090E0B2CCCE017B
:1024600001965C01DE011D966D01E12C01E0212F3A
:1024700040E050E060E87FE316C00E949D03683EA4
:102480007340810591050CF021CEFE0131965F016C
:102490009E01235F3F4F6901E12C00E0212F46E6BA
:1024A00056E666E67FE38FE590E0DACC0E949D0376
:1024B000623C7140810591050CF02FCDCE01019653
:1024C0005C01DE011D966D01BBCD0E949D036B0179
:1024D0007C01B6E9CB16D104E104F1040CF435C952
:1024E000E1E2CE16E3E0DE06E104F104F4F081E07F
:1024F0000E9468048823C9F082E00E94680488234F
:10250000A1F0809116028F5F80931602843078F0DC
:1025100080911502909114028917D8F0109216023A
:102520000E94940310921C0287CF10921602F0EAC8
:10253000CF16FFE0DF06E104F10454F79E012F5FA0
:102540003F4F5901CE010D966C01EE24E39400E05B
:102550008ECFE82FF0E0EE0FFF1FE050FE4F90818E
:102560009835E1F68F5F80931502D8CF0E949D03C6
:102570006B017C019AEFC916D104E104F104ECF47B
:1025800041E070E060E090E080E00E94FB0381E0C9
:102590000E948D046B017C0182E00E948D049B01EE
:1025A000AC01C701B6010E94F915181624F48CE499
:1025B00080930001F2C882E5FBCF20911D022230FA
:1025C00030F1822F63E00E947016923001F531E005
:1025D00084E893E0A0E0B0E0AC01BD0147505F4F5C
:1025E0006F4F7F4F4C155D056E057F05B4F086E09B
:1025F00090E020FD02C08AEF9FEFBC016F5571098A
:1026000040E0A1EABFEFA81BB90BCD019ECD30E0A1
:1026100082EC91E0A0E0B0E0DFCF332301F1895AF2
:102620009D4FAF4FBF4F8C159D05AE05BF05BCF04C
:10263000809100012FEF3FEF8C3411F021E030E06A
:1026400048E84203B001439F700D112440E088E741
:10265000B82FB29FC001B39F900D112476CD2F5F8C
:1026600020931D0210921B02109217021092180262
:102670001092190210921A0255CF81E00E9468044C
:10268000811105C082E00E946804882319F010922D
:102690001E021CCD0E949D03683670418105910584
:1026A00084F041E070E060E090E080E00E94FB0395
:1026B0008DE090E00E94DA068BE191E00E94CC066A
:1026C0006CC840E060E670E08FE590E043C81F5FB3
:1026D000133011F00C94210AEAE07E2E10E0C12C98
:1026E000D12C760100E04601570181E00E942B07C2
:1026F0001B012C0120E030E0A9010E94F91587FDA3
:1027000009C0A2019101C501B4010E942E144B0120
:102710005C010F5F63E270E080E090E00E942E02B7
:1027200082E00E942B071B012C0120E030E0A90170
:102730000E94F91587FD09C0A2019101C701B601E8
:102740000E942E146B017C011F5F63E270E080E049
:1027500090E00E942E027A947110C7CF053020F0CD
:10276000153010F00C944F0A85E00E94990881E022
:102770000E946804B82E82E00E946804A82E00918E
:10278000E901011194CBB1E0B31508F079CBD12C5C
:10279000C12C41CB9F3409F03ECBD60111969C91C0
:1027A000E1E09C3409F0E2E0F0E0E151FE4F2081ED
:1027B000253008F430CB8F5F809315029093FE0193
:1027C0000E94940389E090E0FCCA81E091E00E94BD
:1027D000CC068091EE018F5F8093EE01833008F08C
:1027E00061CD10921C02D2CB963409F06FCD8F5F71
:1027F0008093150281818093FE0186E090E0E1CA1A
:10280000E1E9F2E01382128288EE93E0A0E0B0E00A
:1028100084839583A683B78389E291E09183808343
:1028200085EC90E09587848784EC90E09787868795
:1028300080EC90E0918B808B81EC90E0938B828B8D
:1028400082EC90E0958B848B86EC90E0978B868B66
:10285000118E128E138E148E08955058BB27AA27FE
:102860000E9445140C94BF150E94B11538F00E94C7
:10287000B81520F039F49F3F19F426F40C94AE15E6
:102880000EF4E095E7FB0C94A815E92F0E94D015F3
:1028900058F3BA17620773078407950720F079F495
:1028A000A6F50C94F2150EF4E0950B2EBA2FA02D80
:1028B0000B01B90190010C01CA01A0011124FF27ED
:1028C000591B99F0593F50F4503E68F11A16F040E8
:1028D000A22F232F342F4427585FF3CF46953795E7
:1028E0002795A795F0405395C9F77EF41F16BA0BAC
:1028F000620B730B840BBAF09150A1F0FF0FBB1F5A
:10290000661F771F881FC2F70EC0BA0F621F731FA2
:10291000841F48F4879577956795B795F7959E3FFF
:1029200008F0B0CF9395880F08F09927EE0F979590
:10293000879508950E94841508F481E008950E9407
:10294000B3140C94BF150E94B81558F00E94B1152D
:1029500040F029F45F3F29F00C94A81551110C9414
:10296000F3150C94AE150E94D01568F39923B1F3BA
:10297000552391F3951B550BBB27AA2762177307A5
:10298000840738F09F5F5F4F220F331F441FAA1F39
:10299000A9F335D00E2E3AF0E0E832D091505040F5
:1029A000E695001CCAF72BD0FE2F29D0660F771FA3
:1029B000881FBB1F261737074807AB07B0E809F089
:1029C000BB0B802DBF01FF2793585F4F3AF09E3F0E
:1029D000510578F00C94A8150C94F3155F3FE4F3BF
:1029E000983ED4F3869577956795B795F7959F5F51
:1029F000C9F7880F911D9695879597F90895E1E09D
:102A0000660F771F881FBB1F621773078407BA07FB
:102A100020F0621B730B840BBA0BEE1F88F7E09556
:102A200008950E9418156894B1110C94F315089537
:102A30000E94D81588F09F5798F0B92F9927B75161
:102A4000B0F0E1F0660F771F881F991F1AF0BA9552
:102A5000C9F714C0B13091F00E94F215B1E00895A9
:102A60000C94F215672F782F8827B85F39F0B93F9B
:102A7000CCF3869577956795B395D9F73EF4909505
:102A80008095709561957F4F8F4F9F4F0895E89483
:102A900009C097FB3EF490958095709561957F4FA6
:102AA0008F4F9F4F9923A9F0F92F96E9BB27939554
:102AB000F695879577956795B795F111F8CFFAF464
:102AC000BB0F11F460FF1BC06F5F7F4F8F4F9F4F95
:102AD00016C0882311F096E911C0772321F09EE8F3
:102AE000872F762F05C0662371F096E8862F70E059
:102AF00060E02AF09A95660F771F881FDAF7880F33
:102B00009695879597F90895990F0008550FAA0B88
:102B1000E0E8FEEF16161706E807F907C0F01216F0
:102B20001306E407F50798F0621B730B840B950BF3
:102B300039F40A2661F0232B242B252B21F4089548
:102B40000A2609F4A140A6958FEF811D811D0895E5
:102B500097F99F6780E870E060E008959FEF80EC50
:102B6000089500240A9416161706180609060895F3
:102B700000240A9412161306140605060895092E59
:102B80000394000C11F4882352F0BB0F40F4BF2BC8
:102B900011F460FF04C06F5F7F4F8F4F9F4F089508
:102BA00057FD9058440F551F59F05F3F71F04795FE
:102BB000880F97FB991F61F09F3F79F087950895E3
:102BC000121613061406551FF2CF4695F1DF08C002
:102BD000161617061806991FF1CF8695710561051F
:102BE00008940895E894BB2766277727CB0197F9C7
:102BF00008950E94841508F48FEF08950E9411161D
:102C00000C94BF150E94B11538F00E94B81520F041
:102C1000952311F00C94A8150C94AE1511240C9466
:102C2000F3150E94D01570F3959FC1F3950F50E0F6
:102C3000551F629FF001729FBB27F00DB11D639F6E
:102C4000AA27F00DB11DAA1F649F6627B00DA11D14
:102C5000661F829F2227B00DA11D621F739FB00DBA
:102C6000A11D621F839FA00D611D221F749F33272A
:102C7000A00D611D231F849F600D211D822F762FC3
:102C80006A2F11249F5750409AF0F1F088234AF0A0
:102C9000EE0FFF1FBB1F661F771F881F915050400C
:102CA000A9F79E3F510580F00C94A8150C94F315DC
:102CB0005F3FE4F3983ED4F3869577956795B79593
:102CC000F795E7959F5FC1F7FE2B880F911D9695AD
:102CD000879597F908950E948415880B990B08959C
:102CE000991B79E004C0991F961708F0961B881F5E
:102CF0007A95C9F780950895A1E21A2EAA1BBB1BED
:102D0000FD010DC0AA1FBB1FEE1FFF1FA217B307B7
:102D1000E407F50720F0A21BB30BE40BF50B661FCD
:102D2000771F881F991F1A9469F760957095809591
:102D300090959B01AC01BD01CF010895EE0FFF1FDF
:102D40000590F491E02D0994F894FFCF4C00008099
:102D5000BF000080BF700179017D0187018E01975E
:102D6000019E01A301AA01B401BA01C001C701CEAD
:102D700001000000000C036C0299027403CA02A84F
:102D800002BC024652465246524652464C464C46B9
:102D90004C464C46524652465258004652465246BF
:102DA0005258000F110A0E1009000100020D0A000E
:102DB0006E616E00696E66006F76660053454C4624
:102DC000544553540041524D00434F554E54444FC7
:102DD000574E0043525549534500415050524F41C0
:102DE000434800444543494445005455524E00531E
:102DF00051554152450052454143515549524500B4
:102E000043524545500043524F5353004241434BB8
:102E100055500046494E49534800444F4E45000026
:107E0000112484B714BE81FFF0D085E080938100F7
:107E100082E08093C00088E18093C10086E0809377
:107E2000C20080E18093C4008EE0C9D0259A86E02C
:107E300020E33CEF91E0309385002093840096BBD3
:107E4000B09BFECF1D9AA8958150A9F7CC24DD24C4
:107E500088248394B5E0AB2EA1E19A2EF3E0BF2EE7
:107E6000A2D0813461F49FD0082FAFD0023811F036
:107E7000013811F484E001C083E08DD089C08234E0
:107E800011F484E103C0853419F485E0A6D080C0E4
:107E9000853579F488D0E82EFF2485D0082F10E0AE
:107EA000102F00270E291F29000F111F8ED06801E7
:107EB0006FC0863521F484E090D080E0DECF843638
:107EC00009F040C070D06FD0082F6DD080E0C81688
:107ED00080E7D80618F4F601B7BEE895C0E0D1E017
:107EE00062D089930C17E1F7F0E0CF16F0E7DF06D8
:107EF00018F0F601B7BEE89568D007B600FCFDCFD4
:107F0000A601A0E0B1E02C9130E011968C91119780
:107F100090E0982F8827822B932B1296FA010C0160
:107F200087BEE89511244E5F5F4FF1E0A038BF0790
:107F300051F7F601A7BEE89507B600FCFDCF97BE46
:107F4000E89526C08437B1F42ED02DD0F82E2BD052
:107F50003CD0F601EF2C8F010F5F1F4F84911BD097
:107F6000EA94F801C1F70894C11CD11CFA94CF0C13
:107F7000D11C0EC0853739F428D08EE10CD085E9AC
:107F80000AD08FE07ACF813511F488E018D01DD067
:107F900080E101D065CF982F8091C00085FFFCCF94
:107FA0009093C60008958091C00087FFFCCF809118
:107FB000C00084FD01C0A8958091C6000895E0E648
:107FC000F0E098E1908380830895EDDF803219F02E
:107FD00088E0F5DFFFCF84E1DECF1F93182FE3DFCA
:107FE0001150E9F7F2DF1F91089580E0E8DFEE27F6
:047FF000FF270994CA
:027FFE00040479
:00000001FF
